{
  "contractName": "Fundraiser",
  "abi": [
    {
      "inputs": [
        {
          "internalType": "string",
          "name": "_name",
          "type": "string"
        },
        {
          "internalType": "string",
          "name": "_website",
          "type": "string"
        },
        {
          "internalType": "string",
          "name": "_imageURL",
          "type": "string"
        },
        {
          "internalType": "string",
          "name": "_description",
          "type": "string"
        },
        {
          "internalType": "address payable",
          "name": "_beneficiary",
          "type": "address"
        },
        {
          "internalType": "address",
          "name": "_custodian",
          "type": "address"
        }
      ],
      "stateMutability": "nonpayable",
      "type": "constructor"
    },
    {
      "anonymous": false,
      "inputs": [
        {
          "indexed": true,
          "internalType": "address",
          "name": "donor",
          "type": "address"
        },
        {
          "indexed": false,
          "internalType": "uint256",
          "name": "value",
          "type": "uint256"
        }
      ],
      "name": "DonationReceived",
      "type": "event"
    },
    {
      "anonymous": false,
      "inputs": [
        {
          "indexed": true,
          "internalType": "address",
          "name": "previousOwner",
          "type": "address"
        },
        {
          "indexed": true,
          "internalType": "address",
          "name": "newOwner",
          "type": "address"
        }
      ],
      "name": "OwnershipTransferred",
      "type": "event"
    },
    {
      "anonymous": false,
      "inputs": [
        {
          "indexed": false,
          "internalType": "uint256",
          "name": "amount",
          "type": "uint256"
        }
      ],
      "name": "Withdraw",
      "type": "event"
    },
    {
      "inputs": [],
      "name": "beneficiary",
      "outputs": [
        {
          "internalType": "address payable",
          "name": "",
          "type": "address"
        }
      ],
      "stateMutability": "view",
      "type": "function"
    },
    {
      "inputs": [],
      "name": "description",
      "outputs": [
        {
          "internalType": "string",
          "name": "",
          "type": "string"
        }
      ],
      "stateMutability": "view",
      "type": "function"
    },
    {
      "inputs": [],
      "name": "donationsCount",
      "outputs": [
        {
          "internalType": "uint256",
          "name": "",
          "type": "uint256"
        }
      ],
      "stateMutability": "view",
      "type": "function"
    },
    {
      "inputs": [],
      "name": "imageURL",
      "outputs": [
        {
          "internalType": "string",
          "name": "",
          "type": "string"
        }
      ],
      "stateMutability": "view",
      "type": "function"
    },
    {
      "inputs": [],
      "name": "name",
      "outputs": [
        {
          "internalType": "string",
          "name": "",
          "type": "string"
        }
      ],
      "stateMutability": "view",
      "type": "function"
    },
    {
      "inputs": [],
      "name": "owner",
      "outputs": [
        {
          "internalType": "address",
          "name": "",
          "type": "address"
        }
      ],
      "stateMutability": "view",
      "type": "function"
    },
    {
      "inputs": [],
      "name": "renounceOwnership",
      "outputs": [],
      "stateMutability": "nonpayable",
      "type": "function"
    },
    {
      "inputs": [],
      "name": "totalDonations",
      "outputs": [
        {
          "internalType": "uint256",
          "name": "",
          "type": "uint256"
        }
      ],
      "stateMutability": "view",
      "type": "function"
    },
    {
      "inputs": [
        {
          "internalType": "address",
          "name": "newOwner",
          "type": "address"
        }
      ],
      "name": "transferOwnership",
      "outputs": [],
      "stateMutability": "nonpayable",
      "type": "function"
    },
    {
      "inputs": [],
      "name": "website",
      "outputs": [
        {
          "internalType": "string",
          "name": "",
          "type": "string"
        }
      ],
      "stateMutability": "view",
      "type": "function"
    },
    {
      "stateMutability": "payable",
      "type": "receive"
    },
    {
      "inputs": [
        {
          "internalType": "address payable",
          "name": "_beneficiary",
          "type": "address"
        }
      ],
      "name": "setBeneficiary",
      "outputs": [],
      "stateMutability": "nonpayable",
      "type": "function"
    },
    {
      "inputs": [],
      "name": "myDonationsCount",
      "outputs": [
        {
          "internalType": "uint256",
          "name": "",
          "type": "uint256"
        }
      ],
      "stateMutability": "view",
      "type": "function"
    },
    {
      "inputs": [],
      "name": "donate",
      "outputs": [],
      "stateMutability": "payable",
      "type": "function"
    },
    {
      "inputs": [],
      "name": "myDonations",
      "outputs": [
        {
          "components": [
            {
              "internalType": "uint256",
              "name": "value",
              "type": "uint256"
            },
            {
              "internalType": "uint256",
              "name": "conversionFactor",
              "type": "uint256"
            },
            {
              "internalType": "uint256",
              "name": "date",
              "type": "uint256"
            }
          ],
          "internalType": "struct Fundraiser.Donation[]",
          "name": "donations",
          "type": "tuple[]"
        }
      ],
      "stateMutability": "view",
      "type": "function"
    },
    {
      "inputs": [],
      "name": "withdraw",
      "outputs": [],
      "stateMutability": "nonpayable",
      "type": "function"
    }
  ],
  "bytecode": "0x60806040523480156200001157600080fd5b5060405162001a1538038062001a15833981810160405281019062000037919062000507565b600062000049620001a960201b60201c565b9050806000806101000a81548173ffffffffffffffffffffffffffffffffffffffff021916908373ffffffffffffffffffffffffffffffffffffffff1602179055508073ffffffffffffffffffffffffffffffffffffffff16600073ffffffffffffffffffffffffffffffffffffffff167f8be0079c531659141344cd1fd0a4f28419497f9722a3daafe3b4186f6b6457e060405160405180910390a3508560029080519060200190620000ff929190620003c7565b50846003908051906020019062000118929190620003c7565b50836004908051906020019062000131929190620003c7565b5082600590805190602001906200014a929190620003c7565b5081600660006101000a81548173ffffffffffffffffffffffffffffffffffffffff021916908373ffffffffffffffffffffffffffffffffffffffff1602179055506200019d81620001b160201b60201c565b5050505050506200071c565b600033905090565b620001c1620001a960201b60201c565b73ffffffffffffffffffffffffffffffffffffffff1660008054906101000a900473ffffffffffffffffffffffffffffffffffffffff1673ffffffffffffffffffffffffffffffffffffffff161462000282576040517f08c379a00000000000000000000000000000000000000000000000000000000081526004018080602001828103825260208152602001807f4f776e61626c653a2063616c6c6572206973206e6f7420746865206f776e657281525060200191505060405180910390fd5b600073ffffffffffffffffffffffffffffffffffffffff168173ffffffffffffffffffffffffffffffffffffffff1614156200030a576040517f08c379a0000000000000000000000000000000000000000000000000000000008152600401808060200182810382526026815260200180620019ef6026913960400191505060405180910390fd5b8073ffffffffffffffffffffffffffffffffffffffff1660008054906101000a900473ffffffffffffffffffffffffffffffffffffffff1673ffffffffffffffffffffffffffffffffffffffff167f8be0079c531659141344cd1fd0a4f28419497f9722a3daafe3b4186f6b6457e060405160405180910390a3806000806101000a81548173ffffffffffffffffffffffffffffffffffffffff021916908373ffffffffffffffffffffffffffffffffffffffff16021790555050565b828054600181600116156101000203166002900490600052602060002090601f016020900481019282620003ff57600085556200044b565b82601f106200041a57805160ff19168380011785556200044b565b828001600101855582156200044b579182015b828111156200044a5782518255916020019190600101906200042d565b5b5090506200045a91906200045e565b5090565b5b80821115620004795760008160009055506001016200045f565b5090565b6000815190506200048e81620006e8565b92915050565b600081519050620004a58162000702565b92915050565b600082601f830112620004bd57600080fd5b8151620004d4620004ce8262000635565b62000601565b91508082526020830160208301858383011115620004f157600080fd5b620004fe838284620006b0565b50505092915050565b60008060008060008060c087890312156200052157600080fd5b600087015167ffffffffffffffff8111156200053c57600080fd5b6200054a89828a01620004ab565b965050602087015167ffffffffffffffff8111156200056857600080fd5b6200057689828a01620004ab565b955050604087015167ffffffffffffffff8111156200059457600080fd5b620005a289828a01620004ab565b945050606087015167ffffffffffffffff811115620005c057600080fd5b620005ce89828a01620004ab565b9350506080620005e189828a0162000494565b92505060a0620005f489828a016200047d565b9150509295509295509295565b6000604051905081810181811067ffffffffffffffff821117156200062b576200062a620006e6565b5b8060405250919050565b600067ffffffffffffffff821115620006535762000652620006e6565b5b601f19601f8301169050602081019050919050565b6000620006758262000690565b9050919050565b6000620006898262000690565b9050919050565b600073ffffffffffffffffffffffffffffffffffffffff82169050919050565b60005b83811015620006d0578082015181840152602081019050620006b3565b83811115620006e0576000848401525b50505050565bfe5b620006f38162000668565b8114620006ff57600080fd5b50565b6200070d816200067c565b81146200071957600080fd5b50565b6112c3806200072c6000396000f3fe6080604052600436106100ec5760003560e01c8063715018a61161008a578063beb0a41611610059578063beb0a416146102c9578063de2ed893146102f4578063ed88c68e1461031f578063f2fde38b1461032957610115565b8063715018a6146102315780637284e416146102485780638da5cb5b14610273578063b90497e01461029e57610115565b80631c31f710116100c65780631c31f7101461019b5780631f522595146101c457806338af3eed146101ef5780633ccfd60b1461021a57610115565b80630180b97c1461011a57806306fdde03146101455780631a57f7b41461017057610115565b366101155734600760008282540192505081905550600860008154809291906001019190505550005b600080fd5b34801561012657600080fd5b5061012f610352565b60405161013c9190611137565b60405180910390f35b34801561015157600080fd5b5061015a61039c565b6040516101679190611115565b60405180910390f35b34801561017c57600080fd5b5061018561043a565b60405161019291906110f3565b60405180910390f35b3480156101a757600080fd5b506101c260048036038101906101bd9190610f67565b6104f4565b005b3480156101d057600080fd5b506101d9610600565b6040516101e69190611137565b60405180910390f35b3480156101fb57600080fd5b50610204610606565b60405161021191906110d8565b60405180910390f35b34801561022657600080fd5b5061022f61062c565b005b34801561023d57600080fd5b5061024661079c565b005b34801561025457600080fd5b5061025d610922565b60405161026a9190611115565b60405180910390f35b34801561027f57600080fd5b506102886109c0565b60405161029591906110bd565b60405180910390f35b3480156102aa57600080fd5b506102b36109e9565b6040516102c09190611115565b60405180910390f35b3480156102d557600080fd5b506102de610a87565b6040516102eb9190611115565b60405180910390f35b34801561030057600080fd5b50610309610b25565b6040516103169190611137565b60405180910390f35b610327610b2b565b005b34801561033557600080fd5b50610350600480360381019061034b9190610f3e565b610c58565b005b6000600160003373ffffffffffffffffffffffffffffffffffffffff1673ffffffffffffffffffffffffffffffffffffffff16815260200190815260200160002080549050905090565b60028054600181600116156101000203166002900480601f0160208091040260200160405190810160405280929190818152602001828054600181600116156101000203166002900480156104325780601f1061040757610100808354040283529160200191610432565b820191906000526020600020905b81548152906001019060200180831161041557829003601f168201915b505050505081565b6060600160003373ffffffffffffffffffffffffffffffffffffffff1673ffffffffffffffffffffffffffffffffffffffff168152602001908152602001600020805480602002602001604051908101604052809291908181526020016000905b828210156104eb578382906000526020600020906003020160405180606001604052908160008201548152602001600182015481526020016002820154815250508152602001906001019061049b565b50505050905090565b6104fc610e63565b73ffffffffffffffffffffffffffffffffffffffff1660008054906101000a900473ffffffffffffffffffffffffffffffffffffffff1673ffffffffffffffffffffffffffffffffffffffff16146105bc576040517f08c379a00000000000000000000000000000000000000000000000000000000081526004018080602001828103825260208152602001807f4f776e61626c653a2063616c6c6572206973206e6f7420746865206f776e657281525060200191505060405180910390fd5b80600660006101000a81548173ffffffffffffffffffffffffffffffffffffffff021916908373ffffffffffffffffffffffffffffffffffffffff16021790555050565b60085481565b600660009054906101000a900473ffffffffffffffffffffffffffffffffffffffff1681565b610634610e63565b73ffffffffffffffffffffffffffffffffffffffff1660008054906101000a900473ffffffffffffffffffffffffffffffffffffffff1673ffffffffffffffffffffffffffffffffffffffff16146106f4576040517f08c379a00000000000000000000000000000000000000000000000000000000081526004018080602001828103825260208152602001807f4f776e61626c653a2063616c6c6572206973206e6f7420746865206f776e657281525060200191505060405180910390fd5b6000479050600660009054906101000a900473ffffffffffffffffffffffffffffffffffffffff1673ffffffffffffffffffffffffffffffffffffffff166108fc829081150290604051600060405180830381858888f19350505050158015610761573d6000803e3d6000fd5b507f5b6b431d4476a211bb7d41c20d1aab9ae2321deee0d20be3d9fc9b1093fa6e3d816040516107919190611137565b60405180910390a150565b6107a4610e63565b73ffffffffffffffffffffffffffffffffffffffff1660008054906101000a900473ffffffffffffffffffffffffffffffffffffffff1673ffffffffffffffffffffffffffffffffffffffff1614610864576040517f08c379a00000000000000000000000000000000000000000000000000000000081526004018080602001828103825260208152602001807f4f776e61626c653a2063616c6c6572206973206e6f7420746865206f776e657281525060200191505060405180910390fd5b600073ffffffffffffffffffffffffffffffffffffffff1660008054906101000a900473ffffffffffffffffffffffffffffffffffffffff1673ffffffffffffffffffffffffffffffffffffffff167f8be0079c531659141344cd1fd0a4f28419497f9722a3daafe3b4186f6b6457e060405160405180910390a360008060006101000a81548173ffffffffffffffffffffffffffffffffffffffff021916908373ffffffffffffffffffffffffffffffffffffffff160217905550565b60058054600181600116156101000203166002900480601f0160208091040260200160405190810160405280929190818152602001828054600181600116156101000203166002900480156109b85780601f1061098d576101008083540402835291602001916109b8565b820191906000526020600020905b81548152906001019060200180831161099b57829003601f168201915b505050505081565b60008060009054906101000a900473ffffffffffffffffffffffffffffffffffffffff16905090565b60048054600181600116156101000203166002900480601f016020809104026020016040519081016040528092919081815260200182805460018160011615610100020316600290048015610a7f5780601f10610a5457610100808354040283529160200191610a7f565b820191906000526020600020905b815481529060010190602001808311610a6257829003601f168201915b505050505081565b60038054600181600116156101000203166002900480601f016020809104026020016040519081016040528092919081815260200182805460018160011615610100020316600290048015610b1d5780601f10610af257610100808354040283529160200191610b1d565b820191906000526020600020905b815481529060010190602001808311610b0057829003601f168201915b505050505081565b60075481565b610b33610ef3565b604051806060016040528034815260200160028152602001428152509050600160003373ffffffffffffffffffffffffffffffffffffffff1673ffffffffffffffffffffffffffffffffffffffff1681526020019081526020016000208190806001815401808255809150506001900390600052602060002090600302016000909190919091506000820151816000015560208201518160010155604082015181600201555050610bef34600754610e6b90919063ffffffff16565b6007819055506008600081548092919060010191905055503373ffffffffffffffffffffffffffffffffffffffff167f264f630d9efa0d07053a31163641d9fcc0adafc9d9e76f1c37c2ce3a558d2c5234604051610c4d9190611137565b60405180910390a250565b610c60610e63565b73ffffffffffffffffffffffffffffffffffffffff1660008054906101000a900473ffffffffffffffffffffffffffffffffffffffff1673ffffffffffffffffffffffffffffffffffffffff1614610d20576040517f08c379a00000000000000000000000000000000000000000000000000000000081526004018080602001828103825260208152602001807f4f776e61626c653a2063616c6c6572206973206e6f7420746865206f776e657281525060200191505060405180910390fd5b600073ffffffffffffffffffffffffffffffffffffffff168173ffffffffffffffffffffffffffffffffffffffff161415610da6576040517f08c379a00000000000000000000000000000000000000000000000000000000081526004018080602001828103825260268152602001806112686026913960400191505060405180910390fd5b8073ffffffffffffffffffffffffffffffffffffffff1660008054906101000a900473ffffffffffffffffffffffffffffffffffffffff1673ffffffffffffffffffffffffffffffffffffffff167f8be0079c531659141344cd1fd0a4f28419497f9722a3daafe3b4186f6b6457e060405160405180910390a3806000806101000a81548173ffffffffffffffffffffffffffffffffffffffff021916908373ffffffffffffffffffffffffffffffffffffffff16021790555050565b600033905090565b600080828401905083811015610ee9576040517f08c379a000000000000000000000000000000000000000000000000000000000815260040180806020018281038252601b8152602001807f536166654d6174683a206164646974696f6e206f766572666c6f77000000000081525060200191505060405180910390fd5b8091505092915050565b60405180606001604052806000815260200160008152602001600081525090565b600081359050610f2381611239565b92915050565b600081359050610f3881611250565b92915050565b600060208284031215610f5057600080fd5b6000610f5e84828501610f14565b91505092915050565b600060208284031215610f7957600080fd5b6000610f8784828501610f29565b91505092915050565b6000610f9c838361105d565b60608301905092915050565b610fb1816111b9565b82525050565b610fc0816111a7565b82525050565b6000610fd182611162565b610fdb8185611185565b9350610fe683611152565b8060005b83811015611017578151610ffe8882610f90565b975061100983611178565b925050600181019050610fea565b5085935050505092915050565b600061102f8261116d565b6110398185611196565b93506110498185602086016111f5565b61105281611228565b840191505092915050565b606082016000820151611073600085018261109f565b506020820151611086602085018261109f565b506040820151611099604085018261109f565b50505050565b6110a8816111eb565b82525050565b6110b7816111eb565b82525050565b60006020820190506110d26000830184610fb7565b92915050565b60006020820190506110ed6000830184610fa8565b92915050565b6000602082019050818103600083015261110d8184610fc6565b905092915050565b6000602082019050818103600083015261112f8184611024565b905092915050565b600060208201905061114c60008301846110ae565b92915050565b6000819050602082019050919050565b600081519050919050565b600081519050919050565b6000602082019050919050565b600082825260208201905092915050565b600082825260208201905092915050565b60006111b2826111cb565b9050919050565b60006111c4826111cb565b9050919050565b600073ffffffffffffffffffffffffffffffffffffffff82169050919050565b6000819050919050565b60005b838110156112135780820151818401526020810190506111f8565b83811115611222576000848401525b50505050565b6000601f19601f8301169050919050565b611242816111a7565b811461124d57600080fd5b50565b611259816111b9565b811461126457600080fd5b5056fe4f776e61626c653a206e6577206f776e657220697320746865207a65726f2061646472657373a264697066735822122051e3b487bbc06009a64fad4069293d280f4737ca646faadd45e45ea37804e38564736f6c634300070400334f776e61626c653a206e6577206f776e657220697320746865207a65726f2061646472657373",
  "immutableReferences": {},
  "source": "// SPDX-License-Identifier: MIT\npragma solidity >=0.4.21 <0.8.0;\n\npragma experimental ABIEncoderV2;\n\nimport \"../node_modules/@openzeppelin/contracts/access/Ownable.sol\";\nimport \"../node_modules/@openzeppelin/contracts/math/SafeMath.sol\";\n\n/**\n    Notes : \n    1. as best practice separate deposit and withdraw actions\n    2. When testing a function thet has permissions, should test for when \n    the test condition is met and when it fails.\n    3. test if an event is emmited\n */\n\ncontract Fundraiser is Ownable {\n    using SafeMath for uint256;\n\n    struct Donation {\n        uint256 value;\n        uint256 conversionFactor;\n        uint256 date;\n    }\n\n    mapping(address => Donation[]) private _donations;\n    event DonationReceived(address indexed donor, uint256 value);\n    event Withdraw(uint256 amount);\n    string public name;\n    string public website;\n    string public imageURL;\n    string public description;\n    address payable public beneficiary;\n    uint256 public totalDonations;\n    uint256 public donationsCount;\n\n    constructor(\n        string memory _name,\n        string memory _website,\n        string memory _imageURL,\n        string memory _description,\n        address payable _beneficiary,\n        address _custodian\n    ) {\n        name = _name;\n        website = _website;\n        imageURL = _imageURL;\n        description = _description;\n        beneficiary = _beneficiary;\n        // the address of the custodian is associated\n        // with the manager of the fundraiser assuming\n        // that the beneficiary use a service like coinbase\n        // in order to be able to sell received ether and\n        // does not have access to his private key in order to\n        // be able to withdraw\n        //*******************\n        // this function is defined in the Ownable contract of openzeppelin\n        // the custodian will be the owner of the contract\n        transferOwnership(_custodian);\n    }\n\n    // the Fundraiser manager can change the benefiaciary address\n    // in case he enetered a wrong one or the beneficiary decides to\n    // switch the exchange he is using\n    function setBeneficiary(address payable _beneficiary) public onlyOwner {\n        beneficiary = _beneficiary;\n    }\n\n    function myDonationsCount() public view returns (uint256) {\n        return _donations[msg.sender].length;\n    }\n\n    function donate() public payable {\n        Donation memory donation =\n            Donation({\n                value: msg.value,\n                date: block.timestamp,\n                conversionFactor: 2 // pass it in param\n            });\n        _donations[msg.sender].push(donation);\n        // using safeMath since there is no limit to the\n        // amount that a donor can donate nor on the number\n        // of donations\n        totalDonations = totalDonations.add(msg.value);\n        donationsCount++;\n        emit DonationReceived(msg.sender, msg.value);\n    }\n\n    // function myDonations()\n    //     external\n    //     view\n    //     returns (uint256[] memory values, uint256[] memory dates)\n    // {\n    //     uint256 count = myDonationsCount();\n    //     values = new uint256[](count);\n    //     dates = new uint256[](count);\n    //     Donation[] storage donations = _donations[msg.sender];\n    //     for (uint256 i = 0; i < count; i++) {\n    //         values[i] = donations[i].value;\n    //         dates[i] = donations[i].date;\n    //     }\n    //     return (values, dates);\n    // }\n\n    function myDonations() external view returns (Donation[] memory donations) {\n        return _donations[msg.sender];\n    }\n\n    function withdraw() public onlyOwner {\n        uint256 balance = address(this).balance;\n        beneficiary.transfer(balance);\n        emit Withdraw(balance);\n    }\n\n    // simulate anonymous donations\n    // the donation will not really be anonymous\n    // since the transaction will be recorded on the blockchain\n    // with the address of the emitter unless the adress is\n    // set up to make tracing it more difficult\n    receive() external payable {\n        totalDonations += msg.value;\n        donationsCount++;\n    }\n}\n",
  "sourcePath": "/home/wissal/Documents/dev-workspace/solidity/handsOnSmartContracts/fundraiser2/contracts/Fundraiser.sol",
  "compiler": {
    "name": "solc",
    "version": "0.7.4+commit.3f05b770.Emscripten.clang"
  },
  "schemaVersion": "3.3.1",
  "updatedAt": "2021-01-08T21:33:37.433Z",
  "devdoc": {
    "kind": "dev",
    "methods": {
      "owner()": {
        "details": "Returns the address of the current owner."
      },
      "renounceOwnership()": {
        "details": "Leaves the contract without owner. It will not be possible to call `onlyOwner` functions anymore. Can only be called by the current owner. NOTE: Renouncing ownership will leave the contract without an owner, thereby removing any functionality that is only available to the owner."
      },
      "transferOwnership(address)": {
        "details": "Transfers ownership of the contract to a new account (`newOwner`). Can only be called by the current owner."
      }
    },
    "version": 1
  },
  "userdoc": {
    "kind": "user",
    "methods": {},
    "notice": "Notes :  1. as best practice separate deposit and withdraw actions 2. When testing a function thet has permissions, should test for when  the test condition is met and when it fails. 3. test if an event is emmited",
    "version": 1
  }
}