{
  "contractName": "Fundraiser",
  "abi": [
    {
      "anonymous": false,
      "inputs": [
        {
          "indexed": true,
          "internalType": "address",
          "name": "donor",
          "type": "address"
        },
        {
          "indexed": false,
          "internalType": "uint256",
          "name": "value",
          "type": "uint256"
        }
      ],
      "name": "DonationReceived",
      "type": "event"
    },
    {
      "anonymous": false,
      "inputs": [
        {
          "indexed": false,
          "internalType": "uint256",
          "name": "amount",
          "type": "uint256"
        }
      ],
      "name": "Withdraw",
      "type": "event"
    },
    {
      "inputs": [],
      "name": "beneficiary",
      "outputs": [
        {
          "internalType": "address payable",
          "name": "",
          "type": "address"
        }
      ],
      "stateMutability": "view",
      "type": "function",
      "constant": true
    },
    {
      "inputs": [],
      "name": "description",
      "outputs": [
        {
          "internalType": "string",
          "name": "",
          "type": "string"
        }
      ],
      "stateMutability": "view",
      "type": "function",
      "constant": true
    },
    {
      "inputs": [],
      "name": "donationsCount",
      "outputs": [
        {
          "internalType": "uint256",
          "name": "",
          "type": "uint256"
        }
      ],
      "stateMutability": "view",
      "type": "function",
      "constant": true
    },
    {
      "inputs": [],
      "name": "imageURL",
      "outputs": [
        {
          "internalType": "string",
          "name": "",
          "type": "string"
        }
      ],
      "stateMutability": "view",
      "type": "function",
      "constant": true
    },
    {
      "inputs": [],
      "name": "name",
      "outputs": [
        {
          "internalType": "string",
          "name": "",
          "type": "string"
        }
      ],
      "stateMutability": "view",
      "type": "function",
      "constant": true
    },
    {
      "inputs": [],
      "name": "totalDonations",
      "outputs": [
        {
          "internalType": "uint256",
          "name": "",
          "type": "uint256"
        }
      ],
      "stateMutability": "view",
      "type": "function",
      "constant": true
    },
    {
      "inputs": [],
      "name": "website",
      "outputs": [
        {
          "internalType": "string",
          "name": "",
          "type": "string"
        }
      ],
      "stateMutability": "view",
      "type": "function",
      "constant": true
    },
    {
      "stateMutability": "payable",
      "type": "receive",
      "payable": true
    },
    {
      "inputs": [],
      "name": "owner",
      "outputs": [
        {
          "internalType": "address",
          "name": "",
          "type": "address"
        }
      ],
      "stateMutability": "view",
      "type": "function",
      "constant": true
    },
    {
      "inputs": [
        {
          "internalType": "string",
          "name": "_name",
          "type": "string"
        },
        {
          "internalType": "string",
          "name": "_website",
          "type": "string"
        },
        {
          "internalType": "string",
          "name": "_imageURL",
          "type": "string"
        },
        {
          "internalType": "string",
          "name": "_description",
          "type": "string"
        },
        {
          "internalType": "address",
          "name": "_beneficiary",
          "type": "address"
        },
        {
          "internalType": "address",
          "name": "_fundraiserOwner",
          "type": "address"
        }
      ],
      "name": "init",
      "outputs": [],
      "stateMutability": "nonpayable",
      "type": "function"
    },
    {
      "inputs": [
        {
          "internalType": "address payable",
          "name": "_beneficiary",
          "type": "address"
        }
      ],
      "name": "setBeneficiary",
      "outputs": [],
      "stateMutability": "nonpayable",
      "type": "function"
    },
    {
      "inputs": [],
      "name": "myDonationsCount",
      "outputs": [
        {
          "internalType": "uint256",
          "name": "",
          "type": "uint256"
        }
      ],
      "stateMutability": "view",
      "type": "function",
      "constant": true
    },
    {
      "inputs": [],
      "name": "donate",
      "outputs": [],
      "stateMutability": "payable",
      "type": "function",
      "payable": true
    },
    {
      "inputs": [],
      "name": "myDonations",
      "outputs": [
        {
          "components": [
            {
              "internalType": "uint256",
              "name": "value",
              "type": "uint256"
            },
            {
              "internalType": "uint256",
              "name": "conversionFactor",
              "type": "uint256"
            },
            {
              "internalType": "uint256",
              "name": "date",
              "type": "uint256"
            }
          ],
          "internalType": "struct Fundraiser.Donation[]",
          "name": "donations",
          "type": "tuple[]"
        }
      ],
      "stateMutability": "view",
      "type": "function",
      "constant": true
    },
    {
      "inputs": [],
      "name": "withdraw",
      "outputs": [],
      "stateMutability": "nonpayable",
      "type": "function"
    }
  ],
  "bytecode": "0x60806040526000600755600060085534801561001a57600080fd5b5061152f8061002a6000396000f3fe6080604052600436106100e15760003560e01c80633ccfd60b1161007f578063b90497e011610059578063b90497e0146102a5578063beb0a416146102d0578063de2ed893146102fb578063ed88c68e146103265761010a565b80633ccfd60b146102385780637284e4161461024f5780638da5cb5b1461027a5761010a565b80631c31f710116100bb5780631c31f710146101905780631f522595146101b95780632edfe5a6146101e457806338af3eed1461020d5761010a565b80630180b97c1461010f57806306fdde031461013a5780631a57f7b4146101655761010a565b3661010a5734600760008282540192505081905550600860008154809291906001019190505550005b600080fd5b34801561011b57600080fd5b50610124610330565b6040516101319190611357565b60405180910390f35b34801561014657600080fd5b5061014f61037a565b60405161015c91906112b5565b60405180910390f35b34801561017157600080fd5b5061017a610418565b6040516101879190611293565b60405180910390f35b34801561019c57600080fd5b506101b760048036038101906101b29190610ed2565b6104d2565b005b3480156101c557600080fd5b506101ce610614565b6040516101db9190611357565b60405180910390f35b3480156101f057600080fd5b5061020b60048036038101906102069190610efb565b61061a565b005b34801561021957600080fd5b5061022261086e565b60405161022f9190611278565b60405180910390f35b34801561024457600080fd5b5061024d610894565b005b34801561025b57600080fd5b506102646109ca565b60405161027191906112b5565b60405180910390f35b34801561028657600080fd5b5061028f610a68565b60405161029c919061125d565b60405180910390f35b3480156102b157600080fd5b506102ba610a91565b6040516102c791906112b5565b60405180910390f35b3480156102dc57600080fd5b506102e5610b2f565b6040516102f291906112b5565b60405180910390f35b34801561030757600080fd5b50610310610bcd565b60405161031d9190611357565b60405180910390f35b61032e610bd3565b005b6000600160003373ffffffffffffffffffffffffffffffffffffffff1673ffffffffffffffffffffffffffffffffffffffff16815260200190815260200160002080549050905090565b60028054600181600116156101000203166002900480601f0160208091040260200160405190810160405280929190818152602001828054600181600116156101000203166002900480156104105780601f106103e557610100808354040283529160200191610410565b820191906000526020600020905b8154815290600101906020018083116103f357829003601f168201915b505050505081565b6060600160003373ffffffffffffffffffffffffffffffffffffffff1673ffffffffffffffffffffffffffffffffffffffff168152602001908152602001600020805480602002602001604051908101604052809291908181526020016000905b828210156104c95783829060005260206000209060030201604051806060016040529081600082015481526020016001820154815260200160028201548152505081526020019060010190610479565b50505050905090565b3373ffffffffffffffffffffffffffffffffffffffff1660008054906101000a900473ffffffffffffffffffffffffffffffffffffffff1673ffffffffffffffffffffffffffffffffffffffff1614610560576040517f08c379a000000000000000000000000000000000000000000000000000000000815260040161055790611337565b60405180910390fd5b600073ffffffffffffffffffffffffffffffffffffffff168173ffffffffffffffffffffffffffffffffffffffff1614156105d0576040517f08c379a00000000000000000000000000000000000000000000000000000000081526004016105c7906112f7565b60405180910390fd5b80600660006101000a81548173ffffffffffffffffffffffffffffffffffffffff021916908373ffffffffffffffffffffffffffffffffffffffff16021790555050565b60085481565b600073ffffffffffffffffffffffffffffffffffffffff1660008054906101000a900473ffffffffffffffffffffffffffffffffffffffff1673ffffffffffffffffffffffffffffffffffffffff16146106a9576040517f08c379a00000000000000000000000000000000000000000000000000000000081526004016106a090611317565b60405180910390fd5b600073ffffffffffffffffffffffffffffffffffffffff168273ffffffffffffffffffffffffffffffffffffffff161415610719576040517f08c379a0000000000000000000000000000000000000000000000000000000008152600401610710906112f7565b60405180910390fd5b600073ffffffffffffffffffffffffffffffffffffffff168173ffffffffffffffffffffffffffffffffffffffff161415610789576040517f08c379a0000000000000000000000000000000000000000000000000000000008152600401610780906112d7565b60405180910390fd5b856002908051906020019061079f929190610d88565b5084600390805190602001906107b6929190610d88565b5083600490805190602001906107cd929190610d88565b5082600590805190602001906107e4929190610d88565b5081600660006101000a81548173ffffffffffffffffffffffffffffffffffffffff021916908373ffffffffffffffffffffffffffffffffffffffff160217905550806000806101000a81548173ffffffffffffffffffffffffffffffffffffffff021916908373ffffffffffffffffffffffffffffffffffffffff160217905550505050505050565b600660009054906101000a900473ffffffffffffffffffffffffffffffffffffffff1681565b3373ffffffffffffffffffffffffffffffffffffffff1660008054906101000a900473ffffffffffffffffffffffffffffffffffffffff1673ffffffffffffffffffffffffffffffffffffffff1614610922576040517f08c379a000000000000000000000000000000000000000000000000000000000815260040161091990611337565b60405180910390fd5b6000479050600660009054906101000a900473ffffffffffffffffffffffffffffffffffffffff1673ffffffffffffffffffffffffffffffffffffffff166108fc829081150290604051600060405180830381858888f1935050505015801561098f573d6000803e3d6000fd5b507f5b6b431d4476a211bb7d41c20d1aab9ae2321deee0d20be3d9fc9b1093fa6e3d816040516109bf9190611357565b60405180910390a150565b60058054600181600116156101000203166002900480601f016020809104026020016040519081016040528092919081815260200182805460018160011615610100020316600290048015610a605780601f10610a3557610100808354040283529160200191610a60565b820191906000526020600020905b815481529060010190602001808311610a4357829003601f168201915b505050505081565b60008060009054906101000a900473ffffffffffffffffffffffffffffffffffffffff16905090565b60048054600181600116156101000203166002900480601f016020809104026020016040519081016040528092919081815260200182805460018160011615610100020316600290048015610b275780601f10610afc57610100808354040283529160200191610b27565b820191906000526020600020905b815481529060010190602001808311610b0a57829003601f168201915b505050505081565b60038054600181600116156101000203166002900480601f016020809104026020016040519081016040528092919081815260200182805460018160011615610100020316600290048015610bc55780601f10610b9a57610100808354040283529160200191610bc5565b820191906000526020600020905b815481529060010190602001808311610ba857829003601f168201915b505050505081565b60075481565b610bdb610e16565b604051806060016040528034815260200160028152602001428152509050600160003373ffffffffffffffffffffffffffffffffffffffff1673ffffffffffffffffffffffffffffffffffffffff1681526020019081526020016000208190806001815401808255809150506001900390600052602060002090600302016000909190919091506000820151816000015560208201518160010155604082015181600201555050610c9734600754610d0090919063ffffffff16565b6007819055506008600081548092919060010191905055503373ffffffffffffffffffffffffffffffffffffffff167f264f630d9efa0d07053a31163641d9fcc0adafc9d9e76f1c37c2ce3a558d2c5234604051610cf59190611357565b60405180910390a250565b600080828401905083811015610d7e576040517f08c379a000000000000000000000000000000000000000000000000000000000815260040180806020018281038252601b8152602001807f536166654d6174683a206164646974696f6e206f766572666c6f77000000000081525060200191505060405180910390fd5b8091505092915050565b828054600181600116156101000203166002900490600052602060002090601f016020900481019282610dbe5760008555610e05565b82601f10610dd757805160ff1916838001178555610e05565b82800160010185558215610e05579182015b82811115610e04578251825591602001919060010190610de9565b5b509050610e129190610e37565b5090565b60405180606001604052806000815260200160008152602001600081525090565b5b80821115610e50576000816000905550600101610e38565b5090565b600081359050610e63816114cb565b92915050565b600081359050610e78816114e2565b92915050565b600082601f830112610e8f57600080fd5b8135610ea2610e9d826113a3565b611372565b91508082526020830160208301858383011115610ebe57600080fd5b610ec9838284611476565b50505092915050565b600060208284031215610ee457600080fd5b6000610ef284828501610e69565b91505092915050565b60008060008060008060c08789031215610f1457600080fd5b600087013567ffffffffffffffff811115610f2e57600080fd5b610f3a89828a01610e7e565b965050602087013567ffffffffffffffff811115610f5757600080fd5b610f6389828a01610e7e565b955050604087013567ffffffffffffffff811115610f8057600080fd5b610f8c89828a01610e7e565b945050606087013567ffffffffffffffff811115610fa957600080fd5b610fb589828a01610e7e565b9350506080610fc689828a01610e54565b92505060a0610fd789828a01610e54565b9150509295509295509295565b6000610ff083836111fd565b60608301905092915050565b6110058161143a565b82525050565b61101481611428565b82525050565b6000611025826113e3565b61102f8185611406565b935061103a836113d3565b8060005b8381101561106b5781516110528882610fe4565b975061105d836113f9565b92505060018101905061103e565b5085935050505092915050565b6000611083826113ee565b61108d8185611417565b935061109d818560208601611485565b6110a6816114ba565b840191505092915050565b60006110be603683611417565b91507f6f776e657220616464726573732073686f756c64206265206469666672656e7460008301527f2066726f6d20746865207a65726f2061646472657373000000000000000000006020830152604082019050919050565b6000611124603c83611417565b91507f62656e656669636961727920616464726573732073686f756c6420626520646960008301527f666672656e742066726f6d20746865207a65726f2061646472657373000000006020830152604082019050919050565b600061118a601983611417565b91507f6f776e657220616c726561647920696e697469616c697a6564000000000000006000830152602082019050919050565b60006111ca602083611417565b91507f4f776e61626c653a2063616c6c6572206973206e6f7420746865206f776e65726000830152602082019050919050565b606082016000820151611213600085018261123f565b506020820151611226602085018261123f565b506040820151611239604085018261123f565b50505050565b6112488161146c565b82525050565b6112578161146c565b82525050565b6000602082019050611272600083018461100b565b92915050565b600060208201905061128d6000830184610ffc565b92915050565b600060208201905081810360008301526112ad818461101a565b905092915050565b600060208201905081810360008301526112cf8184611078565b905092915050565b600060208201905081810360008301526112f0816110b1565b9050919050565b6000602082019050818103600083015261131081611117565b9050919050565b600060208201905081810360008301526113308161117d565b9050919050565b60006020820190508181036000830152611350816111bd565b9050919050565b600060208201905061136c600083018461124e565b92915050565b6000604051905081810181811067ffffffffffffffff82111715611399576113986114b8565b5b8060405250919050565b600067ffffffffffffffff8211156113be576113bd6114b8565b5b601f19601f8301169050602081019050919050565b6000819050602082019050919050565b600081519050919050565b600081519050919050565b6000602082019050919050565b600082825260208201905092915050565b600082825260208201905092915050565b60006114338261144c565b9050919050565b60006114458261144c565b9050919050565b600073ffffffffffffffffffffffffffffffffffffffff82169050919050565b6000819050919050565b82818337600083830152505050565b60005b838110156114a3578082015181840152602081019050611488565b838111156114b2576000848401525b50505050565bfe5b6000601f19601f8301169050919050565b6114d481611428565b81146114df57600080fd5b50565b6114eb8161143a565b81146114f657600080fd5b5056fea26469706673582212205c0f97c9684395c11c19e786b892cfab33b37d7651903affabd821a449c6d48764736f6c63430007040033",
  "immutableReferences": {},
  "source": "// SPDX-License-Identifier: MIT\npragma solidity >=0.4.21 <0.8.0;\n\npragma experimental ABIEncoderV2;\n\nimport \"@openzeppelin/contracts/math/SafeMath.sol\";\n\n// the address of the custodian is associated\n// with the manager of the fundraiser assuming\n// that the beneficiary use a service like coinbase\n// in order to be able to sell received ether and\n// does not have access to his private key in order to\n// be able to withdraw\n\ncontract Fundraiser {\n    using SafeMath for uint256;\n\n    struct Donation {\n        uint256 value;\n        uint256 conversionFactor;\n        uint256 date;\n    }\n\n    address private _owner;\n\n    mapping(address => Donation[]) private _donations;\n    event DonationReceived(address indexed donor, uint256 value);\n    event Withdraw(uint256 amount);\n    string public name;\n    string public website;\n    string public imageURL;\n    string public description;\n    address payable public beneficiary;\n    uint256 public totalDonations = 0;\n    uint256 public donationsCount = 0;\n\n    /**\n     * @dev Returns the address of the current owner.\n     */\n    function owner() public view returns (address) {\n        return _owner;\n    }\n\n    /**\n     * @dev Throws if called by any account other than the owner.\n     */\n    modifier onlyOwner() {\n        require(_owner == msg.sender, \"Ownable: caller is not the owner\");\n        _;\n    }\n\n    // Need this function when the contract is created\n    // by a clone factory\n    function init(\n        string memory _name,\n        string memory _website,\n        string memory _imageURL,\n        string memory _description,\n        address _beneficiary,\n        address _fundraiserOwner\n    ) public {\n        require(_owner == address(0), \"owner already initialized\");\n        require(\n            _beneficiary != address(0),\n            \"beneficiary address should be diffrent from the zero address\"\n        );\n        require(\n            _fundraiserOwner != address(0),\n            \"owner address should be diffrent from the zero address\"\n        );\n        name = _name;\n        website = _website;\n        imageURL = _imageURL;\n        description = _description;\n        beneficiary = payable(_beneficiary);\n        _owner = _fundraiserOwner;\n    }\n\n    // the Fundraiser manager can change the benefiaciary address\n    // in case he enetered a wrong one or the beneficiary decides to\n    // switch the exchange he is using\n    function setBeneficiary(address payable _beneficiary) public onlyOwner {\n        require(\n            _beneficiary != address(0),\n            \"beneficiary address should be diffrent from the zero address\"\n        );\n        beneficiary = _beneficiary;\n    }\n\n    function myDonationsCount() public view returns (uint256) {\n        return _donations[msg.sender].length;\n    }\n\n    function donate() public payable {\n        Donation memory donation =\n            Donation({\n                value: msg.value,\n                date: block.timestamp,\n                conversionFactor: 2 // pass it in param\n            });\n        _donations[msg.sender].push(donation);\n        // using safeMath since there is no limit to the\n        // amount that a donor can donate nor on the number\n        // of donations\n        totalDonations = totalDonations.add(msg.value);\n        donationsCount++;\n        emit DonationReceived(msg.sender, msg.value);\n    }\n\n    function myDonations() external view returns (Donation[] memory donations) {\n        return _donations[msg.sender];\n    }\n\n    function withdraw() public onlyOwner {\n        uint256 balance = address(this).balance;\n        beneficiary.transfer(balance);\n        emit Withdraw(balance);\n    }\n\n    // simulate anonymous donations\n    // the donation will not really be anonymous\n    // since the transaction will be recorded on the blockchain\n    // with the address of the emitter unless the adress is\n    // set up to make tracing it more difficult\n    receive() external payable {\n        totalDonations += msg.value;\n        donationsCount++;\n    }\n}\n",
  "sourcePath": "/home/wissal/Documents/dev-workspace/solidity/handsOnSmartContracts/fundraiser4/contracts/Fundraiser.sol",
  "compiler": {
    "name": "solc",
    "version": "0.7.4+commit.3f05b770.Emscripten.clang"
  },
  "schemaVersion": "3.3.1",
  "updatedAt": "2021-03-07T13:07:00.354Z",
  "networkType": "ethereum",
  "devdoc": {
    "kind": "dev",
    "methods": {
      "owner()": {
        "details": "Returns the address of the current owner."
      }
    },
    "version": 1
  },
  "userdoc": {
    "kind": "user",
    "methods": {},
    "version": 1
  }
}