{
  "contractName": "FundraiserFactory",
  "abi": [
    {
      "inputs": [
        {
          "internalType": "address",
          "name": "_masterContract",
          "type": "address"
        }
      ],
      "stateMutability": "nonpayable",
      "type": "constructor"
    },
    {
      "anonymous": false,
      "inputs": [
        {
          "indexed": true,
          "internalType": "contract Fundraiser",
          "name": "fundraiser",
          "type": "address"
        },
        {
          "indexed": true,
          "internalType": "address",
          "name": "owner",
          "type": "address"
        }
      ],
      "name": "FundraiserCreated",
      "type": "event"
    },
    {
      "inputs": [
        {
          "internalType": "string",
          "name": "",
          "type": "string"
        }
      ],
      "name": "_fundraisers",
      "outputs": [
        {
          "internalType": "contract Fundraiser",
          "name": "",
          "type": "address"
        }
      ],
      "stateMutability": "view",
      "type": "function",
      "constant": true
    },
    {
      "inputs": [],
      "name": "masterContract",
      "outputs": [
        {
          "internalType": "address",
          "name": "",
          "type": "address"
        }
      ],
      "stateMutability": "view",
      "type": "function",
      "constant": true
    },
    {
      "inputs": [],
      "name": "fundraisersCount",
      "outputs": [
        {
          "internalType": "uint256",
          "name": "",
          "type": "uint256"
        }
      ],
      "stateMutability": "view",
      "type": "function",
      "constant": true
    },
    {
      "inputs": [
        {
          "internalType": "string",
          "name": "name",
          "type": "string"
        },
        {
          "internalType": "string",
          "name": "url",
          "type": "string"
        },
        {
          "internalType": "string",
          "name": "imageURL",
          "type": "string"
        },
        {
          "internalType": "string",
          "name": "description",
          "type": "string"
        },
        {
          "internalType": "address payable",
          "name": "beneficiary",
          "type": "address"
        }
      ],
      "name": "createFundraiser",
      "outputs": [],
      "stateMutability": "nonpayable",
      "type": "function"
    },
    {
      "inputs": [
        {
          "internalType": "uint256",
          "name": "limit",
          "type": "uint256"
        },
        {
          "internalType": "uint256",
          "name": "offset",
          "type": "uint256"
        }
      ],
      "name": "fundraisers",
      "outputs": [
        {
          "internalType": "contract Fundraiser[]",
          "name": "coll",
          "type": "address[]"
        }
      ],
      "stateMutability": "view",
      "type": "function",
      "constant": true
    },
    {
      "inputs": [
        {
          "internalType": "string",
          "name": "name",
          "type": "string"
        }
      ],
      "name": "fundraiserByName",
      "outputs": [
        {
          "internalType": "contract Fundraiser",
          "name": "",
          "type": "address"
        }
      ],
      "stateMutability": "view",
      "type": "function",
      "constant": true
    }
  ],
  "bytecode": "0x608060405234801561001057600080fd5b50604051610d4a380380610d4a8339818101604052602081101561003357600080fd5b810190808051906020019092919050505080600160006101000a81548173ffffffffffffffffffffffffffffffffffffffff021916908373ffffffffffffffffffffffffffffffffffffffff16021790555050610cb5806100956000396000f3fe608060405234801561001057600080fd5b50600436106100625760003560e01c806311d752ad146100675780636b88ba61146101ff578063704914f8146102e45780639d3b435514610371578063c3b348e91461038f578063cd446e2214610432575b600080fd5b6101fd600480360360a081101561007d57600080fd5b810190808035906020019064010000000081111561009a57600080fd5b8201836020820111156100ac57600080fd5b803590602001918460018302840111640100000000831117156100ce57600080fd5b9091929391929390803590602001906401000000008111156100ef57600080fd5b82018360208201111561010157600080fd5b8035906020019184600183028401116401000000008311171561012357600080fd5b90919293919293908035906020019064010000000081111561014457600080fd5b82018360208201111561015657600080fd5b8035906020019184600183028401116401000000008311171561017857600080fd5b90919293919293908035906020019064010000000081111561019957600080fd5b8201836020820111156101ab57600080fd5b803590602001918460018302840111640100000000831117156101cd57600080fd5b9091929391929390803573ffffffffffffffffffffffffffffffffffffffff169060200190929190505050610466565b005b6102b86004803603602081101561021557600080fd5b810190808035906020019064010000000081111561023257600080fd5b82018360208201111561024457600080fd5b8035906020019184600183028401116401000000008311171561026657600080fd5b91908080601f016020809104026020016040519081016040528093929190818152602001838380828437600081840152601f19601f82011690508083019250505050505050919291929050505061078b565b604051808273ffffffffffffffffffffffffffffffffffffffff16815260200191505060405180910390f35b61031a600480360360408110156102fa57600080fd5b8101908080359060200190929190803590602001909291905050506107d4565b6040518080602001828103825283818151815260200191508051906020019060200280838360005b8381101561035d578082015181840152602081019050610342565b505050509050019250505060405180910390f35b6103796109de565b6040518082815260200191505060405180910390f35b610406600480360360208110156103a557600080fd5b81019080803590602001906401000000008111156103c257600080fd5b8201836020820111156103d457600080fd5b803590602001918460018302840111640100000000831117156103f657600080fd5b90919293919293905050506109eb565b604051808273ffffffffffffffffffffffffffffffffffffffff16815260200191505060405180910390f35b61043a610a9c565b604051808273ffffffffffffffffffffffffffffffffffffffff16815260200191505060405180910390f35b6104708989610ac2565b156104e3576040517f08c379a000000000000000000000000000000000000000000000000000000000815260040180806020018281038252601e8152602001807f66756e64726169736572206e616d6520616c726561647920657869737473000081525060200191505060405180910390fd5b6000610510600160009054906101000a900473ffffffffffffffffffffffffffffffffffffffff16610b43565b90508073ffffffffffffffffffffffffffffffffffffffff16632edfe5a68b8b8b8b8b8b8b8b8b336040518b63ffffffff1660e01b815260040180806020018060200180602001806020018773ffffffffffffffffffffffffffffffffffffffff1681526020018673ffffffffffffffffffffffffffffffffffffffff16815260200185810385528f8f82818152602001925080828437600081840152601f19601f82011690508083019250505085810384528d8d82818152602001925080828437600081840152601f19601f82011690508083019250505085810383528b8b82818152602001925080828437600081840152601f19601f8201169050808301925050508581038252898982818152602001925080828437600081840152601f19601f8201169050808301925050509e505050505050505050505050505050600060405180830381600087803b15801561066957600080fd5b505af115801561067d573d6000803e3d6000fd5b505050508060008b8b604051808383808284378083019250505092505050908152602001604051809103902060006101000a81548173ffffffffffffffffffffffffffffffffffffffff021916908373ffffffffffffffffffffffffffffffffffffffff16021790555060028a8a90918060018154018082558091505060019003906000526020600020016000909192909192909192909192509190610724929190610bad565b503373ffffffffffffffffffffffffffffffffffffffff168173ffffffffffffffffffffffffffffffffffffffff167fa2398daac0c8053a1e3c0280916c2ec6bc884f0959c27e639a4db829b7eabfb160405160405180910390a350505050505050505050565b6000818051602081018201805184825260208301602085012081835280955050505050506000915054906101000a900473ffffffffffffffffffffffffffffffffffffffff1681565b60606107de6109de565b821115610853576040517f08c379a00000000000000000000000000000000000000000000000000000000081526004018080602001828103825260148152602001807f6f6666736574206f7574206f6620626f756e647300000000000000000000000081525060200191505060405180910390fd5b60008261085e6109de565b03905083811061086e5783610870565b805b905060148110610881576014610883565b805b90508067ffffffffffffffff8111801561089c57600080fd5b506040519080825280602002602001820160405280156108cb5781602001602082028036833780820191505090505b50915060005b818110156109d65760006002828601815481106108ea57fe5b90600052602060002001604051808280546001816001161561010002031660029004801561094f5780601f1061092d57610100808354040283529182019161094f565b820191906000526020600020905b81548152906001019060200180831161093b575b5050915050908152602001604051809103902060009054906101000a900473ffffffffffffffffffffffffffffffffffffffff1683828151811061098f57fe5b602002602001019073ffffffffffffffffffffffffffffffffffffffff16908173ffffffffffffffffffffffffffffffffffffffff168152505080806001019150506108d1565b505092915050565b6000600280549050905090565b60006109f78383610ac2565b610a4c576040517f08c379a0000000000000000000000000000000000000000000000000000000008152600401808060200182810382526027815260200180610c596027913960400191505060405180910390fd5b60008383604051808383808284378083019250505092505050908152602001604051809103902060009054906101000a900473ffffffffffffffffffffffffffffffffffffffff16905092915050565b600160009054906101000a900473ffffffffffffffffffffffffffffffffffffffff1681565b60008073ffffffffffffffffffffffffffffffffffffffff1660008484604051808383808284378083019250505092505050908152602001604051809103902060009054906101000a900473ffffffffffffffffffffffffffffffffffffffff1673ffffffffffffffffffffffffffffffffffffffff161415905092915050565b6000808260601b90506040517f3d602d80600a3d3981f3363d3d373d3d3d363d7300000000000000000000000081528160148201527f5af43d82803e903d91602b57fd5bf3000000000000000000000000000000000060288201526037816000f092505050919050565b828054600181600116156101000203166002900490600052602060002090601f016020900481019282610be35760008555610c2a565b82601f10610bfc57803560ff1916838001178555610c2a565b82800160010185558215610c2a579182015b82811115610c29578235825591602001919060010190610c0e565b5b509050610c379190610c3b565b5090565b5b80821115610c54576000816000905550600101610c3c565b509056fe546865207265717565737465642066756e6472616973657220646f6573206e6f74206578697374a26469706673582212202678d49b8cfea7104c0b7ad75349e9972f6f2daa025c58a74432b63baf95641164736f6c63430007040033",
  "immutableReferences": {},
  "source": "// SPDX-License-Identifier: MIT\n\npragma solidity >=0.4.22 <0.8.0;\n\nimport \"./Fundraiser.sol\";\nimport \"./CloneFactory.sol\";\n\ncontract FundraiserFactory is CloneFactory {\n    mapping(string => Fundraiser) public _fundraisers;\n    address public masterContract;\n    string[] _names;\n    uint256 constant maxLimit = 20;\n    event FundraiserCreated(\n        Fundraiser indexed fundraiser,\n        address indexed owner\n    );\n\n    constructor(address _masterContract) {\n        masterContract = _masterContract;\n    }\n\n    function fundraisersCount() public view returns (uint256) {\n        return _names.length;\n    }\n\n    // TODO : change this to clone factory\n    // current gas : 1249969\n    // function createFundraiser(\n    //     string calldata name,\n    //     string calldata url,\n    //     string calldata imageURL,\n    //     string calldata description,\n    //     address payable beneficiary\n    // ) external {\n    //     require(!_nameExists(name), \"fundraiser name already exists\");\n    //     Fundraiser fundraiser =\n    //         new Fundraiser(\n    //             name,\n    //             url,\n    //             imageURL,\n    //             description,\n    //             beneficiary,\n    //             msg.sender\n    //         );\n    //     _fundraisers[name] = fundraiser;\n    //     _names.push(name);\n    //     emit FundraiserCreated(fundraiser, msg.sender);\n    // }\n\n    function createFundraiser(\n        string calldata name,\n        string calldata url,\n        string calldata imageURL,\n        string calldata description,\n        address payable beneficiary\n    ) external {\n        require(!_nameExists(name), \"fundraiser name already exists\");\n        Fundraiser fundraiser =\n            Fundraiser(payable(createClone(masterContract)));\n        fundraiser.init(\n            name,\n            url,\n            imageURL,\n            description,\n            beneficiary,\n            msg.sender\n        );\n        _fundraisers[name] = fundraiser;\n        _names.push(name);\n\n        emit FundraiserCreated(fundraiser, msg.sender);\n    }\n\n    function fundraisers(uint256 limit, uint256 offset)\n        external\n        view\n        returns (Fundraiser[] memory coll)\n    {\n        require(offset <= fundraisersCount(), \"offset out of bounds\");\n        uint256 size = fundraisersCount() - offset;\n        size = size < limit ? size : limit;\n        size = size < maxLimit ? size : maxLimit;\n        coll = new Fundraiser[](size);\n        for (uint256 i = 0; i < size; i++) {\n            coll[i] = _fundraisers[_names[offset + i]];\n        }\n        return coll;\n    }\n\n    function fundraiserByName(string calldata name)\n        external\n        view\n        returns (Fundraiser)\n    {\n        require(_nameExists(name), \"The requested fundraiser does not exist\");\n        return _fundraisers[name];\n    }\n\n    function _nameExists(string calldata name) private view returns (bool) {\n        return _fundraisers[name] != Fundraiser(0x0);\n    }\n}\n",
  "sourcePath": "/home/wissal/Documents/dev-workspace/solidity/handsOnSmartContracts/fundraiser4/contracts/FundraiserFactory.sol",
  "compiler": {
    "name": "solc",
    "version": "0.7.4+commit.3f05b770.Emscripten.clang"
  },
  "schemaVersion": "3.3.1",
  "updatedAt": "2021-03-07T13:07:00.323Z",
  "networkType": "ethereum",
  "devdoc": {
    "kind": "dev",
    "methods": {},
    "version": 1
  },
  "userdoc": {
    "kind": "user",
    "methods": {},
    "version": 1
  }
}